:1000000000000620010300007D03000031510000C4
:1000100081030000830300008503000087030000C4
:100020000000000000000000000000008903000044
:100030008B030000000000008D0300008F03000010
:100040006B4B0000734B00007B4B0000834B0000A8
:100050008B4B0000934B00009B4B0000A34B000018
:10006000AB4B0000B34B0000BB4B0000C34B000088
:10007000CB4B0000D34B0000DB4B0000E34B0000F8
:10008000EB4B0000F34B0000FB4B0000034C000067
:100090000B4C0000134C00001B4C0000234C0000D4
:1000A0002B4C0000334C00003B4C0000434C000044
:1000B0004B4C0000534C00005B4C0000634C0000B4
:1000C0006B4C0000734C00007B4C0000834C000024
:1000D0008B4C0000934C00009B4C0000A34C000094
:1000E000AB4C0000B34C0000BB4C0000C34C000004
:1000F000CB4C0000D34C0000DB4C0000E34C000074
:10010000EB4C0000F34C0000FB4C0000034D0000E2
:100110000B4D0000134D00001B4D0000234D00004F
:100120002B4D0000334D00003B4D0000434D0000BF
:100130004B4D0000534D00005B4D0000634D00002F
:100140006B4D0000734D00007B4D0000834D00009F
:100150008B4D0000934D00009B4D0000A34D00000F
:10016000AB4D0000B34D0000BB4D0000C34D00007F
:10017000CB4D0000D34D0000DB4D0000E34D0000EF
:10018000EB4D0000F34D0000FB4D0000034E00005E
:100190000B4E0000134E00001B4E0000234E0000CB
:1001A0002B4E0000334E00003B4E0000434E00003B
:1001B0004B4E0000534E00005B4E0000634E0000AB
:1001C0006B4E0000734E00007B4E0000834E00001B
:1001D0008B4E0000934E00009B4E0000A34E00008B
:1001E000AB4E0000B34E0000BB4E0000C34E0000FB
:1001F000CB4E0000D34E0000DB4E0000E34E00006B
:10020000EB4E0000F34E0000FB4E0000034F0000D9
:100210000B4F0000134F00001B4F0000234F000046
:100220002B4F0000334F00003B4F0000434F0000B6
:100230004B4F0000534F00005B4F0000634F000026
:100240006B4F0000734F00007B4F0000834F000096
:100250008B4F0000934F00009B4F0000A34F000006
:10026000AB4F0000B34F0000BB4F0000C34F000076
:10027000CB4F0000D34F0000DB4F0000E34F0000E6
:10028000EB4F0000F34F0000FB4F00000350000055
:100290000B500000135000001B50000023500000C2
:1002A0002B500000335000003B5000004350000032
:1002B000FC7300000000002058000000FC730000E8
:1002C0000000000400000000FC7300000000062095
:1002D00000000000FC73000000A00B4000000000C4
:1002E00058000020BC0400000000000400000000D2
:1002F000000006200000000000A00B4000000000ED
:1003000072B604F001F80E4B07E003F10C049A6892
:100310005968186800F01AF823460A4A9342F4D341
:1003200006E01C46596854F8080B00F01EF82346F6
:10033000054A9342F5D362B605F090FBFEE700BF95
:10034000B0020000E002000000030000002393421E
:100350000AD210B450F8044B41F8044B04339342D2
:10036000F8D35DF8044B70477047002303E0002288
:1003700040F8042B04338B42F9D37047FEE7FEE7C5
:10038000FEE7FEE7FEE7FEE7FEE7FEE7FEE7FEE745
:10039000FEE7FFFF80B582B000AF78607968024861
:1003A00004F04CFB00BEFDE7A05D000080B58AB004
:1003B00000AFB9607B600346FB731346BB73BB7B26
:1003C000012B01D001232AE0174ABB7B13747B6801
:1003D0007B61BB68BB6100233B7700237B770123F4
:1003E000BB770123FB77002387F82030002387F8B1
:1003F0002130FB7B87F82230002387F8233000234D
:1004000087F8243007F114031946074804F024F84C
:10041000054B064A9A60044B054ADA6000231846E9
:100420002837BD4680BD00BF580000204945000068
:10043000DD44000080B584B000AF786039600023EF
:10044000FB60094B1B7C002B02D14FF0FF3306E011
:100450003A687968054800F023F8F860FB681846A8
:100460001037BD4680BD00BF580000207104000059
:1004700080B582B000AF7860084B1B7C002B02D1A6
:100480004FF0FF3306E0054B9B68391D01220348FE
:100490009847012318460837BD4680BD5800002004
:1004A00080B59CB002AFF860B9607A6000233B660B
:1004B0000023FB650023FB61002387F84A300023FB
:1004C0007B61BB687B667B6E1B78002B00F0D28162
:1004D0007B6E1B7887F8493097F84930252B0BD075
:1004E00097F84920FB6810469847FB690133FB6188
:1004F0007B6E01337B66BCE1012387F84B30002320
:100500007B65002387F85B3020E07B6E01337B66E0
:100510007B6E1B7887F8493097F849302F2B0FD91D
:1005200097F84930392B0BD87A6D13469B0013444A
:100530005B001A4697F849301344303B7B6505E071
:100540007B6E013B7B66012387F85B3097F85B305D
:1005500083F00103DBB2002BD7D17B6E01337B66C6
:100560007B6E1B782E2B2ED100233B65002387F852
:100570005B3020E07B6E01337B667B6E1B7887F8F7
:10058000493097F849302F2B0FD997F84930392B3C
:100590000BD83A6D13469B0013445B001A4697F83C
:1005A00049301344303B3B6505E07B6E013B7B6685
:1005B000012387F85B3097F85B3083F00103DBB2EF
:1005C000002BD7D102E07B6E013B7B667B6E013353
:1005D0007B667B6E1B7887F8493097F84930642B2F
:1005E00024D097F84930692B20D097F84930662BF2
:1005F0001CD097F84930462B18D097F84930782B03
:1006000014D097F84930582B10D097F849306F2BF9
:100610000CD097F84930622B08D097F84930702BEE
:1006200004D097F84930752B40F0DC8097F84930BA
:10063000642B03D097F84930692B15D17B681A1DBC
:100640007A601B68BB6107F1180107F1200097F879
:100650004B3000930A23012204F026FAF86507F1D3
:100660002002FB6D13443B6697F84930582B03D0AA
:1006700097F84930782B1CD197F84930782B02D164
:10068000002387F84B307B681A1D7A601B687B61FA
:1006900007F1140107F1200097F84B300093102365
:1006A000002204F001FAF86507F12002FB6D134403
:1006B0003B6697F849306F2B0BD097F84930622B87
:1006C00007D097F84930702B03D097F84930752B35
:1006D0006AD197F84930702B0DD17B681A1D7A606A
:1006E0001B683B6107F1100107F11403042218464F
:1006F00005F0BBF904E07B681A1D7A601B687B611A
:1007000097F84930623B132B3AD801A252F823F0F4
:1007100069070000810700008107000081070000D1
:1007200081070000810700008107000081070000A9
:100730008107000081070000810700008107000099
:1007400081070000610700007107000081070000B9
:100750008107000081070000810700007907000081
:10076000082387F84A300CE0022387F84A3008E073
:10077000102387F84A3004E00A2387F84A3000E063
:1007800000BF97F84A2007F1140107F1200097F8FD
:100790004B3000931346002204F086F9F86507F108
:1007A0002002FB6D13443B667A6D07F11C01FB6868
:1007B00000930B46F96D202004F056F93B6E002B98
:1007C00054D00AE03B6E5A1E3A661B781A46FB6804
:1007D00010469847FB690133FB613B6E1B78002B89
:1007E000F0D143E097F84930632B0BD17B681A1D99
:1007F0007A601B687B64FB68786C9847FB690133FF
:10080000FB6133E097F84930732B27D17B681A1DC1
:100810007A601B68FB64FB6C002B27D0F86C05F03A
:100820005FF90346FB657A6D07F11C01FB680093D5
:100830000B46F96D202004F017F90AE0FB6C5A1CF6
:10084000FA641B781A46FB6810469847FB69013327
:10085000FB61FB6C1B78002BF0D107E097F8492077
:10086000FB6810469847FB690133FB617B6E0133DF
:100870007B6628E600BFFB6918466837BD4680BD29
:1008800080B584B000AFF860B9601346FB71BB68F7
:100890000F2B02D90848FFF77DFDFB79BA681103D9
:1008A000FA680A4402F5805203F07F03536100BFE7
:1008B0001037BD4680BD00BFB45D000080B582B07A
:1008C00000AF78600121094804F04DFD0346002B7C
:1008D00004D00421064804F0EFFB03E0042104489F
:1008E00004F0F8FB00BF0837BD4680BD00000140A2
:1008F00000C0094080B400AF4F4B1B781AB24E4B7A
:100900005B781BB21B021BB213431BB29BB2C3F337
:100910000A039AB2494B1A80474B5B78DB08DBB27B
:100920001AB2454B9B781BB25B011BB213431BB23F
:100930009BB2C3F30A039AB2404B5A803E4B9B785A
:100940009B09DBB21AB23C4BDB781BB29B001BB29B
:1009500013431AB2384B1B791BB29B021BB21343D1
:100960001BB29BB2C3F30A039AB2344B9A80324B48
:100970001B795B08DBB21AB22F4B5B791BB2DB0130
:100980001BB213431BB29BB2C3F30A039AB22B4BA5
:10099000DA80294B5B791B09DBB29B10DBB203F0D9
:1009A0000303DAB2254B1A72234B5B791B09DBB2C6
:1009B00003F00303DAB2214B5A721F4B9B791AB230
:1009C0001D4BDB791BB21B021BB213431AB21B4B2C
:1009D0005A81194B1B7A1AB2174B5B7A1BB21B0256
:1009E0001BB213431AB2154B9A81134B9B7A1AB25E
:1009F000114BDB7A1BB21B021BB213431AB20F4B13
:100A0000DA810D4B1A7B0D4B1A740B4B5A7B0B4B37
:100A10005A74094B9B7B1AB2074BDB7B1BB21B0240
:100A20001BB213431BB29AB2044B5A8200BFBD469D
:100A30005DF8047B704700BF48010020BC01002026
:100A400080B584B000AFF860B9607A603B607B68C5
:100A500040F21652934205D10D4B00221A700D4BF5
:100A600000221A707B6840F2175293420CD10A4B55
:100A700000221A70094B00221A70FFF73BFF084A48
:100A80000849094803F0F6FA00BF1037BD4680BD9B
:100A90001005002011050020540000201205002040
:100AA000080200206C00002000400B4080B588B098
:100AB00002AF002000F004FC7861254803F0BEFF7F
:100AC0003B46184601F084F87B6801337A69B2FB33
:100AD000F3F33B613B4619461E4801F03FF83B6982
:100AE0001D4AA2FB03239B09013BFB60FB685A1CC8
:100AF00013469B0013441B011A46184BA3FB022309
:100B00005B09BB6000230193BB680093FB68002274
:100B10000321104801F07AF800230193BB68009389
:100B2000FB68012203210B4801F070F800230193B8
:100B3000BB680093FB6802220321064801F066F8B7
:100B4000044804F0D5FA00BF1837BD4680BD00BF89
:100B5000585E000000C00040D34D62101F85EB516D
:100B600080B588B002AF002000F0AAFB786125486C
:100B700003F064FF3B46184601F02AF87B68013316
:100B80007A69B2FBF3F33B613B4619461E4800F01D
:100B9000E5FF3B691D4AA2FB0323DB09013BFB6028
:100BA000FB685A1C13469B0013441B011A46184B42
:100BB000A3FB02235B09BB6000230193BB68009386
:100BC000FB6800220321104801F020F80023019364
:100BD000BB680093FB68012203210B4801F016F863
:100BE00000230193BB680093FB680222032106489F
:100BF00001F00CF8044804F07BFA00BF1837BD463A
:100C000080BD00BF845E000000E0004035064C63FC
:100C10001F85EB5180B586B000AFF860B9607A608F
:100C20000023FB75FB682D4A93420CBF0123002370
:100C3000DBB2BB75BB68B3F57A7F06D9BB68B3F589
:100C4000836F02D23223FB7524E0BB68B3F5836F58
:100C50000FD9BB68322202FB03F3A3F54C43B03B30
:100C60009B081F4AA2FB03231B09DBB23133FB7530
:100C700010E0BB686FF0310202FB03F303F543435E
:100C800050339B08164AA2FB03231B09DBB2C3F1B6
:100C90003303FB75BB7D9B001A467B681344114AE6
:100CA000D35CFA7D9A4215D0F86804F031FA7B687B
:100CB000DAB2FB7D0321F86801F014F8F86804F05B
:100CC00017FABB7D9B001A467B6813440549FA7DE1
:100CD000CA5400E000BF1837BD4680BD00E00040A8
:100CE0004FD1C2190C02002080B582B000AF0121A3
:100CF000382000F0BBFA44F2070000F05FFA03F07E
:100D0000EFFC03F06FFC04F081FE03F04FFC294878
:100D100003F094FE284803F091FE3B46184600F08D
:100D200057FF3B461946254800F018FF244B012287
:100D30001A71234B00225A71042000F0C1FA0346B5
:100D4000204AA2FB0323DB091D4A13601C4B03222C
:100D50009A711B4B0022DA71194B01221A721A4B3D
:100D600001221A71184B00225A71042000F0A8FACF
:100D70000346144AA2FB0323DB09134A1360124BF8
:100D800003229A71104B0122DA710F4B01221A7261
:100D900001220E49094801F069F8094A0021074873
:100DA00000F0D6FF054804F0A3F900BF0837BD46A0
:100DB00080BD00BFB05E0000E05E000000000140AA
:100DC000A4010020D34D6210B001002000000020DB
:100DD00080B582B002AF01214FF4AC7000F046FA4A
:100DE00043F2180000F0EAF90121342000F03EFA45
:100DF00044F2030000F0E2F90121362000F036FA57
:100E000044F2050000F0DAF91A2004F01EF904F0AB
:100E10001FFE03F0E7FB04F0F9FD03F0C7FB16200B
:100E200004F013F9002204214E4804F02AF94D4B36
:100E30005B6D4C4A43F0100353650022032149487F
:100E400004F01FF9474B5B6D464A43F008035365B6
:100E500000220221434804F014F9424B5B6D414AE1
:100E600043F004035365FFF73FFFFFF71FFEFFF753
:100E700077FE3D4802F01AFD3B4B3C4A1A603A4B64
:100E800002221A71384B012283F82620364B0122A8
:100E900083F82720042000F091FA03461A463249CD
:100EA000334802F021FB334801F06CFA31493248F3
:100EB00001F0CEF900223049304801F047FD01220F
:100EC0002D492F4801F042FD4E2200212A48FFF70C
:100ED000D7FC4D2201212848FFF7D2FC284B019373
:100EE000264B00930023274A2749214802F0A8FFF8
:100EF000264B274A1A60254B10225A60254B264A5A
:100F00001A60244B12225A60244B1B78DBB283F008
:100F10000103DBB2002B07D0204B01221A701D4ABF
:100F20001949134803F008F81D4B1B880022194685
:100F30001C48FFF76FFE1A4B5B88012219461948BF
:100F4000FFF768FE164BDB88022219461548FFF7AB
:100F500061FE134B9B88002219461348FFF75AFE87
:100F6000D2E700BF00C00940D0010020A0860100E8
:100F700000400B405C010020000008408800002079
:100F8000A8000020410A00006C000020F8010020A9
:100F9000C8000020000200204801002012050020A7
:100FA000BC01002000C0004000E0004080B400AF61
:100FB000074BD3F8003503F08073002B14BF0123D7
:100FC0000023DBB21846BD465DF8047B704700BFC6
:100FD0000040044080B400AF074BD3F8003603F064
:100FE0008073002B14BF01230023DBB21846BD46DB
:100FF0005DF8047B704700BF0040044080B483B0BC
:1010000000AF78607B68214A934205D07B68204A14
:10101000934201D0012332E07B681C4A934201D005
:10102000012300E000231B4AC2F80833194BD3F810
:101030000033184A23F40003C2F80033154BD3F8E9
:101040000033144A43F01003C2F80033114BD3F8B5
:101050000033104A43F02003C2F800330D4BD3F89D
:1010600000330C4A43F00103C2F8003300BF094BC0
:10107000D3F8003303F08073002BF8D00023184618
:101080000C37BD465DF8047B704700BF006CDC0286
:10109000004495080040044080B485B000AF7860FB
:1010A0000A4BD3F80035FB60FB6823F44033FB6048
:1010B000FA687B681343FB60044AFB68C2F800359A
:1010C00000BF1437BD465DF8047B70470040044004
:1010D00080B485B000AF78600B46FB700323FB60E3
:1010E000FB78022B2DD0022B48DC002B02D0012BE9
:1010F00010D043E07B682A4A934201D9012348E09B
:101100007B68284A934202D90123FB6036E0002322
:10111000FB6033E07B68244A934201D9012338E025
:101120007B68224A934202D90223FB6026E07B6857
:101130001F4A934202D90123FB601FE00023FB609A
:101140001CE07B681B4A934201D9012321E07B68A4
:10115000154A934202D90323FB600FE07B68134AD0
:10116000934202D90223FB6008E07B68104A934255
:1011700002D90123FB6001E00023FB600E4B9B685A
:1011800023F00F02FB6803F00F030B4913438B603E
:10119000002318461437BD465DF8047B704700BF36
:1011A00080F0FA0200366E0100E1F5050090D003F0
:1011B0000051250280D1F0080030044080B489B08D
:1011C00000AF78607B68FB61264B7B617B68B3F185
:1011D000004F40D00023BB6138E0FB69002B39D0C1
:1011E000FB697B827B8A002B2AD07B8AC3F30B03AB
:1011F0003B827B8A1B0B9BB2DBB2013BFB733B8ABE
:1012000040F2FE32934215D1174B5B6923F07062B6
:10121000FB7B1B0603F07063134913434B6100BF54
:10122000114B1A69FB7B1B06534003F07063002BC4
:10123000F6D105E03B8A9B007A691344FA7B1A6079
:10124000FB691B0CFB61BB690133BB61BB69012BF3
:10125000C3D900E000BF00BF2437BD465DF8047B62
:10126000704700BF600200400040044080B485B079
:1012700000AF03463960FB80104BFB60FB889B008E
:10128000FA6813444FF0C0421A603B68002B07D144
:10129000FB889B00FA6813444FF080421A6006E016
:1012A000FB889B00FA6813443A68013A1A6000BF51
:1012B0001437BD465DF8047B704700BF0003004053
:1012C00080B584B000AF78600023FB604FF08042AF
:1012D0007B689A339B0013445B680C2B5BD801A29C
:1012E00052F823F019130000211300002913000005
:1012F000431300004B130000531300005D13000064
:1013000097130000651300006F13000079130000AD
:10131000831300008D13000000F0C4F9F8603DE075
:1013200003F021FFF86039E003F05EFF02464FF062
:101330008043D3F8E433DBB20133B2FBF3F3FB6059
:101340002CE000F0B9F9F86028E000F095F9F860B9
:1013500024E0002000F082F8F8601FE000F046FA78
:10136000F8601BE0012000F079F8F86016E000203A
:1013700000F084F8F86011E0002000F08FF8F860C9
:101380000CE0012000F07AF8F86007E0012000F09E
:1013900085F8F86002E00023FB6000BF4FF0804258
:1013A0007B68F43352F82330DBB20133FA68B2FBC6
:1013B000F3F318461037BD4680BD00BF80B584B03A
:1013C00000AF78600023FB604FF080427B68AC3355
:1013D00052F82330013B052B2BD801A252F823F001
:1013E000F913000001140000091400002314000088
:1013F000391400002B14000003F037FFF8601CE0E4
:1014000000F03AF9F86018E000F056F902464FF0A3
:101410008043D3F88833DBB20133B2FBF3F3FB60D4
:101420000BE000F03FF9F86007E000F0DFF9F8604A
:1014300003E00023FB6000E000BF4FF080427B68C8
:1014400003F5057352F82330DBB20133FA68B2FBBF
:10145000F3F318461037BD4680BD00BF80B483B09B
:1014600000AF7860044A7B6852F8233018460C3786
:10147000BD465DF8047B70471402002080B483B041
:1014800000AF7860044A7B6852F8233018460C3766
:10149000BD465DF8047B70471C02002080B483B019
:1014A00000AF7860044A7B6852F8233018460C3746
:1014B000BD465DF8047B70472402002080B582B0F1
:1014C00000AF00237B60124BD3F804355B0E03F0B2
:1014D0000303022B0ED0022B11D8002B02D0012BBC
:1014E00004D00CE000F046F978600BE000F00AF957
:1014F000786007E0012000F053F9786002E00023F3
:101500007B6000BF7B6818460837BD4680BD00BFC2
:101510000040044080B582B000AF00237B60124BD6
:10152000D3F804365B0E03F00303022B0ED0022B1C
:1015300011D8002B02D0012B04D00CE000F01AF9D6
:1015400078600BE000F0DEF8786007E0012000F042
:1015500027F9786002E000237B6000BF7B681846B3
:101560000837BD4680BD00BF0040044090B587B03D
:1015700000AF78603D4BD3F800383C4A43F001039C
:10158000C2F80038394BD3F80035384A23F003034A
:10159000C2F80035354A7B681B68C2F80435334A07
:1015A0007B685B68C2F80C357B685B682F4A43F048
:1015B0000043C2F80C352D4A7B689B68C2F814358D
:1015C0007B689B68294A43F00043C2F81435274AD8
:1015D0007B68DB68C2F810357B68DB68234A43F020
:1015E0000043C2F81035214A7B681B69C2F82435D4
:1015F0001E4A7B685B69C2F828351C4B1C4A9A60FE
:10160000FFF75CFF786100F015F938617A693B6992
:10161000B2FBF3F3FB60FB68164AA2FB0323DB0972
:1016200003F59673114AC3F31003C2F818350F4B34
:10163000D3F800350D4A43F00303C2F8003500BF6C
:10164000FFF7B4FC034683F00103DBB2002BF7D1B4
:101650007B689C6903F087FD03469C4201D003230D
:1016600000E0002318461C37BD4690BD00400440F2
:1016700001005A5AD34D621080B400AF074BD3F823
:10168000003203F02003002B01D0054B00E00023C3
:101690001846BD465DF8047B704700BF004004401B
:1016A000001BB70080B400AF024B1846BD465DF882
:1016B000047B704740420F0080B483B000AF0E4BF4
:1016C000D3F8003303F00103002B02D100237B6029
:1016D0000BE0094BD3F8083303F00103002B02D0D1
:1016E000064B7B6001E0064B7B607B6818460C373D
:1016F000BD465DF8047B70470040044000449508F7
:10170000006CDC0280B400AF074BD3F8003303F069
:101710001003002B01D0054B00E000231846BD4606
:101720005DF8047B704700BF00400440006CDC02A1
:1017300080B483B000AF78600D4BD3F8003203F073
:101740000103002B0DD00A4BD3F820227B681340F5
:1017500003F00F03002B02D04FF47A5302E0002372
:1017600000E0002318460C37BD465DF8047B704747
:101770000090054080B400AF074BD3F8003103F070
:101780008073002B02D0054B1B6800E00023184635
:10179000BD465DF8047B70470040044020000020F7
:1017A00080B483B000AF78600D4BD3F8003403F001
:1017B0008073002B0DD00B4BD3F820217B68134096
:1017C00003F00F03002B02D0074B1B6802E000233D
:1017D00000E0002318460C37BD465DF8047B7047D7
:1017E00000400440009005402400002080B582B0F5
:1017F00000AF00237B600E4B1B8A9BB25B0A03F099
:101800000103012B02D0022B05D009E00120FFF7D4
:10181000C7FF786007E00120FFF78AFF786002E0E9
:1018200000237B6000BF7B6818460837BD4680BD3B
:1018300000C0044080B483B000AF01237B600C4B38
:10184000D3F8043503F40023002B09D1084BD3F857
:101850000C35DBB27B607B68002B01D101237B6000
:101860007B6818460C37BD465DF8047B704700BFA7
:101870000040044080B483B000AF01237B600C4B78
:10188000D3F8043603F40023002B09D1084BD3F816
:101890000C36DBB27B607B68002B01D101237B60BF
:1018A0007B6818460C37BD465DF8047B704700BF67
:1018B0000040044080B483B000AF01237B60144B30
:1018C000D3F8043503F48013002B19D1104BD3F84F
:1018D000043503F48033002B06D00D4BD3F81435B8
:1018E00003F01F037B6006E0094BD3F8143503F0C7
:1018F0001F035B007B607B68002B01D102237B60B0
:101900007B6818460C37BD465DF8047B704700BF06
:101910000040044080B483B000AF01237B60144BCF
:10192000D3F8043603F48013002B19D1104BD3F8ED
:10193000043603F48033002B06D00D4BD3F8143655
:1019400003F01F037B6006E0094BD3F8143603F065
:101950001F035B007B607B68002B01D102237B604F
:101960007B6818460C37BD465DF8047B704700BFA6
:101970000040044080B584B000AF4FF07E53FB6060
:10198000254BD3F8283503F40063002B0AD1224BF2
:10199000D3F810359BB207EE903AF8EE677AC7EDB0
:1019A000037A27E01C4BD3F82835DB0103F08003D2
:1019B000BB60194BD3F824355B0EBA681343BB6088
:1019C000154BD3F8243523F07E4307EE903AB8EE5A
:1019D000677ADFED126AC7EE267AC7ED017ABB6837
:1019E00007EE903AF8EE677A97ED017A77EE277A6C
:1019F000C7ED037AF86804F06DF902460B4613430D
:101A000002D14FF07E53FB60FB6807EE903AB0EED8
:101A1000670A1037BD4680BD004004400000004CFE
:101A200080B584B000AF4FF07E53FB60254BD3F8F8
:101A3000283603F40063002B0AD1224BD3F810366A
:101A40009BB207EE903AF8EE677AC7ED037A27E08B
:101A50001C4BD3F82836DB0103F08003BB60194B25
:101A6000D3F824365B0EBA681343BB60154BD3F82A
:101A7000243623F07E4307EE903AB8EE677ADFED26
:101A8000126AC7EE267AC7ED017ABB6807EE903A74
:101A9000F8EE677A97ED017A77EE277AC7ED037A49
:101AA000F86804F017F902460B46134302D14FF0D1
:101AB0007E53FB60FB6807EE903AB0EE670A103782
:101AC000BD4680BD004004400000004C80B483B09F
:101AD00000AF0346FB80B7F90630002B0BDBFB8819
:101AE00003F01F020749B7F906305B09012000FA2D
:101AF00002F241F8232000BF0C37BD465DF8047B9D
:101B0000704700BF00E100E080B584B000AF7860AE
:101B10000523BB600023FB6009E00E4AFB6852F816
:101B200023307A689A4207D0FB680133FB60FA6879
:101B3000BB689A42F1D300E000BFFA68BB689A42E2
:101B400002D30548FEF726FCFB6818461037BD4651
:101B500080BD00BF987200001C5F000080B582B09D
:101B600000AF786039603B68002B02D11548FEF762
:101B700011FC7868FFF7C8FF0346134A32F81330A8
:101B8000184603F0A1FB7868FFF7BEFF03460F4A33
:101B900052F82330184603F089FE3B681B7803F0A7
:101BA00003023B685B789B0003F00C031A437B68DD
:101BB0001A673B685A687B68DA6000BF0837BD4621
:101BC00080BD00BF4C5F0000AC720000B872000026
:101BD00080B582B000AF78607B68002B02D10A48E4
:101BE000FEF7D8FB08220021786803F040FF7B68ED
:101BF00000221A707B6800225A707B6800225A60AB
:101C000000BF0837BD4680BD705F000080B586B05C
:101C100000AFF8607B600B46FB721346BB72F8683E
:101C2000FFF772FF3861BA7AFB7A9A4201D1012339
:101C300051E0FB685A6FBB7A012101FA03F31A43A2
:101C4000FB685A67FB685B697B61BA7A13465B0085
:101C50001344072202FA03F3DB437A6913407B61E2
:101C600097F82430002B09D0BA7A13465B0013444E
:101C7000012202FA03F37A6913437B61FA7A13466D
:101C80005B001344022202FA03F37A6913437B6177
:101C9000FB687A695A61FA7AFB680632796843F818
:101CA0002210BA7AFB680632396A43F82210BB7AEE
:101CB000012202FA03F31946F86803F046FB97F88D
:101CC0002430002B06D0064A3B6932F913301846FF
:101CD00003F016FB002318461837BD4680BD00BF31
:101CE000CC72000080B485B000AF78600846114621
:101CF0001A460346FB700B46BB7013467B700023ED
:101D0000FB60FA787B68063253F82230BB607B7840
:101D1000002B03D1BB680133FB600AE07B78C3F181
:101D20006403BA6802FB03F3084AA2FB03235B09BE
:101D3000FB60BA787B680632F96843F8221000BF6E
:101D40001437BD465DF8047B704700BF1F85EB511B
:101D500080B586B000AFF8600B467A60FB72F86819
:101D6000FFF7D2FE7861FB685B693B61FA7A134644
:101D70005B001344072202FA03F3DB433A69134082
:101D80003B617B681B791946FA7A13465B00134462
:101D9000013301FA03F33A6913433B617B685B79D2
:101DA0001946FA7A13465B001344023301FA03F32F
:101DB0003A6913433B617B681B7A1946FA7A1346EA
:101DC0005B00134401FA03F33A6913433B61FB6878
:101DD0003A695A61FB68DB6B3B61FB7A5B0030223E
:101DE00002FA03F3DB433A6913403B617B689B795A
:101DF0001A46FB7A02335B0002FA03F33A69134393
:101E00003B61FB7A012202FA03F3DB433A69134098
:101E10003B617B68DB791A46FB7A02FA03F33A6985
:101E200013433B61FB683A69DA63FA7A7B681968A5
:101E3000FB68063243F82210FB7A012202FA03F310
:101E40001946F86803F081FA7B681B7A002B06D0EC
:101E5000054A7B6932F91330184603F051FA00BF86
:101E60001837BD4680BD00BFCC72000080B586B07B
:101E700000AFF860B9601346FB71F868FFF744FEE5
:101E8000786107497B69BA6841F82320054A7B6974
:101E90001344FA791A7000BF1837BD4680BD00BFE1
:101EA0002C0200204002002080B586B000AF786090
:101EB000274A7B6852F82330184603F03AFA386113
:101EC000234A7B6852F823303969184603F03DFAFB
:101ED000204A7B6813441B78002B0ED11E4A7B6876
:101EE00052F823301B68002B2ED01B4A7B6852F817
:101EF00023301B683869984726E000237B6120E087
:101F000001227B6902FA03F3FB603A69FB68134024
:101F1000002B13D0104A7B6852F823207B699B006A
:101F200013441B68002B09D00B4A7B6852F823200E
:101F30007B699B0013441B68386998477B690133B0
:101F40007B617B69072BDBD900BF1837BD4680BD9D
:101F500098720000400200202C02002080B483B060
:101F600000AF0346FB80B7F90630002B0BDBFB8884
:101F700003F01F020749B7F906305B09012000FA98
:101F800002F241F8232000BF0C37BD465DF8047B08
:101F9000704700BF00E100E080B584B000AFF8609A
:101FA000B9601346FB71BB680F2B02D90848FEF7D6
:101FB000F1F9FB79BA681103FA680A4402F5805214
:101FC00003F07F03536100BF1037BD4680BD00BFE3
:101FD000945F000080B584B000AFF860B96013462C
:101FE000FB71BB680F2B02D91548FEF7D3F9FB79BB
:101FF000002B10D0BB681A03FB68134403F5805311
:10200000DB68BA681103FA680A4402F5805243F4A7
:102010008033D3600FE0BB681A03FB68134403F5F9
:102020008053DB68BA681103FA680A4402F58052EB
:1020300023F48033D36000BF1037BD4680BD00BF9E
:10204000E05F000080B584B000AFF860B96013466F
:10205000FB71BB680F2B02D91548FEF79BF9FB7982
:10206000012B10D1BB681A03FB68134403F580539E
:10207000DB68BA681103FA680A4402F5805243F437
:102080008043D3600FE0BB681A03FB68134403F579
:102090008053DB68BA681103FA680A4402F580527B
:1020A00023F48043D36000BF1037BD4680BD00BF1E
:1020B0002C60000080B584B000AFF860B9601346B2
:1020C000FB71BB680F2B02D91548FEF763F9FB794A
:1020D000012B10D1BB681A03FB68134403F580532E
:1020E000DB68BA681103FA680A4402F5805243F4C7
:1020F0000043D3600FE0BB681A03FB68134403F589
:102100008053DB68BA681103FA680A4402F580520A
:1021100023F40043D36000BF1037BD4680BD00BF2D
:102120007860000080B584B000AF78600023FB6069
:1021300009E00D4AFB6852F823307A689A4206D0CB
:10214000FB680133FB60FB68012BF2D900E000BFA4
:10215000FB68012B02D90548FEF71CF9FB681846FD
:102160001037BD4680BD00BFD8720000C4600000BB
:1021700080B586B000AFF860B9607A60BB680F2B9D
:1021800002D93048FEF706F97B68002B02D12E48B1
:10219000FEF700F97B6803F01F03002B02D02B48E9
:1021A000FEF7F8F8BB681A03FB68134403F5815384
:1021B0007B61BB681A03FB68134403F580531B68FB
:1021C000BA681103FA680A4402F5805243F080436A
:1021D00013607B681A687B691A607B689B889AB277
:1021E0007B699A807B68DB889AB27B69DA807B683E
:1021F0009A687B699A607B68DA687B69DA607B68D9
:102200001A697B691A617B689B8A9AB27B699A8298
:102210007B68DB8A9AB27B69DA827B689A697B6920
:102220009A617B6900229A837B689B8B9AB27B6957
:102230009A837B68DB8B9AB27B69DA8300BF18379D
:10224000BD4680BDF8600000446100006061000090
:1022500080B584B000AF786039603B68002B02D154
:102260002A48FEF797F80023FB607868FFF75AFFCB
:102270000346274A32F81330184603F0A6F87B6865
:102280001B68BB60BB6823F0F6023B681B78DB0170
:10229000DBB21A433B689B781B0103F010031A431F
:1022A0003B681B799B0003F004031A433B68DB780F
:1022B0005B0003F002031A433B685B789B0103F069
:1022C00040031343BB607B68BA681A600023FB605D
:1022D00013E03B68FA68023253F82230002B09D031
:1022E0003B68FA68023253F822301A46F968786877
:1022F00000F010F8FB680133FB60FB680F2BE8D996
:1023000000BF00BF1037BD4680BD00BF9061000018
:10231000E072000080B584B000AFF860B9607A6008
:102320007B68002B02D11648FEF734F87B681A460A
:10233000B968F86800F04AF87B681B79002B06D072
:102340007B681B791A46B968F868FFF725FE7B6839
:102350005B791A46B968F868FFF73CFE7B689B79A1
:102360001A46B968F868FFF76DFE7B68DB791A4694
:10237000B968F868FFF79EFE00BF1037BD4680BD04
:10238000B061000080B582B000AF78607B68002B40
:1023900002D10D48FDF7FEFF48220021786803F0C6
:1023A00066FB7B6800221A717B6801229A707B6849
:1023B00000221A707B680022DA707B6801225A7052
:1023C00000BF0837BD4680BDD861000080B586B02B
:1023D00000AFF860B9607A60BB680F2B02D914486F
:1023E000FDF7D8FF7B68002B02D11248FDF7D2FF22
:1023F0007B685B78FB757B681B78BB757B689B781B
:102400007B75BB7DDA07FB7D9B0703F080431A4396
:102410007B7D03F00703B9680803F968014401F5FF
:10242000805113430B6100BF1837BD4680BD00BF0C
:10243000F86100004462000080B582B000AF7860AF
:102440007B68002B02D11848FDF7A4FF7B6803F0DE
:102450001F03002B02D01548FDF79CFF7B6800226C
:102460001A607B6800229A807B680022DA807B6891
:1024700000229A607B680022DA607B6800221A6181
:102480007B6800229A827B680022DA827B680022C5
:102490009A617B6808229A837B680022DA8300BFF6
:1024A0000837BD4680BD00BF646200008462000042
:1024B00080B584B000AFF860B9607A60FB68002B2B
:1024C00002D11548FDF766FFFB6803F01F03002BE0
:1024D00002D01248FDF75EFFBB68002B02D1104806
:1024E000FDF758FFB968F86800F01CF87B68002B0E
:1024F0000DD07A68FB689A61FB689B8B9BB243F0B6
:1025000010039BB223F008039AB2FB689A8300BFC2
:102510001037BD4680BD00BFB4620000D462000029
:102520000463000080B584B000AF786039603B6818
:10253000002B02D17548FDF72DFF3B681A693B68F7
:102540001B7A19464FF0FF338B40DB431340002BBF
:1025500002D06F48FDF71EFF3B681A693B685B7A43
:1025600019464FF0FF338B40DB431340002B02D062
:102570006848FDF70FFF3B68B3F90A301A463B681D
:102580001B7A19464FF0FF338B40DB431340002B7F
:1025900002D06148FDF7FEFE3B68B3F90C301A46E5
:1025A0003B685B7A19464FF0FF338B40DB431340A7
:1025B000002B02D05948FDF7EDFE3B681A683B68D6
:1025C0001B7A19464FF0FF338B40DB431340002B3F
:1025D00002D05348FDF7DEFE3B685A683B685B7AE1
:1025E00019464FF0FF338B40DB431340002B02D0E2
:1025F0004C48FDF7CFFE3B681A683B689B7E194646
:102600004FF0FF338B40DB431340002B02D0464892
:10261000FDF7C0FE3B685A683B6893F820301946C6
:102620004FF0FF338B40DB431340002B02D03F4879
:10263000FDF7B0FE3B681A687B681A603B685A6811
:102640007B681A613B681B7A1B029BB203F4E06350
:102650009AB23B685B7A03F007039BB213439AB2CA
:102660007B68DA803B68B3F90A309AB27B689A805B
:102670003B68B3F90C309AB27B689A823B6893F856
:102680002830002B04D13B6893F82930002B18D058
:102690003B681B69C3F309023B68DB6A9902244B60
:1026A0000B401A433B6893F829309B0703F08043A3
:1026B0001A433B6893F82830DB071A437B689A601B
:1026C00005E03B681B6923F040427B689A603B68E9
:1026D0005B699AB27B68DA823B685B699AB27B6815
:1026E000DA837B6808229A833B685B6C002B21D0DD
:1026F0003B685B6C1A467B689A617B689B8B9BB2DC
:1027000043F010039AB27B689A8320E024630000B0
:1027100048630000AC6300001064000078640000AF
:10272000E464000040650000A0650000FC65000056
:1027300000FCFF3F7B689B8B9BB223F010039AB297
:102740007B689A833B685B6A1A467B689A617B6800
:102750009B8B9BB21AB23B681B8B1BB223F001030D
:102760001BB213431BB29AB27B689A833B6893F8FF
:102770003830002B3BD07B68DB8A9BB26FEA434347
:102780006FEA53439AB27B68DA827B68DB8B9BB239
:102790006FEA43436FEA53439AB27B68DA837B68FC
:1027A000DB8A9BB223F4F053FB813B68DB6B9BB26B
:1027B0005B029BB203F4F0539AB2FB891343FB8193
:1027C0007B68FA89DA827B68DB8B9BB223F4F05357
:1027D000FB813B68DB6B9BB25B029BB203F4F05363
:1027E0009AB2FB891343FB817B68FA89DA833B68E1
:1027F00093F83030002B1AD07B689B8B9BB243F050
:1028000020039AB27B689A837B689B8B9BB223F4EC
:102810007063BB813B685B6B9BB21B029BB203F492
:1028200070639AB2BB8913439AB27B689A833B6800
:1028300093F8303083F00103DBB2002B1FD03B68EC
:1028400093F8383083F00103DBB2002B17D07B689C
:10285000DB8A9BB2C3F30E039AB27B68DA827B6891
:10286000DB8B9BB2C3F30E039AB27B68DA837B687F
:102870009B8B9BB223F020039AB27B689A833B68C0
:10288000DB691A467B68DA607B68DB889AB240F2C3
:10289000077313407B813B6893F82030DB009BB2C9
:1028A000DBB29AB27B8913439AB23B689B7EDB0210
:1028B0009BB213439AB27B68DA8000BF1037BD46E3
:1028C00080BD00BF80B584B000AF786039603B68E0
:1028D0000F2B02D91C48FDF75DFD0023FB603B6810
:1028E0001A037B68134403F580531B6803F080438D
:1028F000002B02D00023FB6021E03B681A037B68B9
:10290000134403F58153DB8A9BB21BB2002B0BDA15
:102910003B681A037B68134403F58153DB8A9BB23F
:10292000C3F30803FB600AE03B681A037B681344A7
:1029300003F58153DB8A9BB2C3F30E03FB60FB6894
:1029400018461037BD4680BD5866000080B586B079
:1029500000AFF860B9607A60FB68002B02D13248A2
:10296000FDF718FD7B680F2B02D93048FDF712FDEB
:1029700020220021F86803F07AF8FB687A689A61EF
:10298000B868FFF7CFFB786129497B691A017B683A
:102990001344FA6841F8232026497B691A017B68B1
:1029A000134431F91330184602F02BFD7B681A03EB
:1029B000BB68134403F581531A46FB681A617B68B0
:1029C0001A03BB68134403F580531A46FB689A60E8
:1029D000FB68BA68DA60FB681B693B613B690022EF
:1029E0001A603B6900229A803B690022DA803B69C9
:1029F00000229A603B690022DA603B6900221A617A
:102A00003B6900229A823B690022DA823B690022FC
:102A10009A613B6900229A833B690022DA8300BFF6
:102A20001837BD4680BD00BFA4660000C866000020
:102A300048020020E472000080B584B000AFF86066
:102A4000B9607A60FB68002B02D10648FDF7A2FC52
:102A5000FB68BA681A60FB687A685A6000BF103772
:102A6000BD4680BD1467000080B584B000AF7860BB
:102A70000023FB737B68202B4AD87B68002B60D037
:102A80007B68013B1F2B5CD801A252F823F000BFEA
:102A9000192B00001F2B0000432B0000252B0000EA
:102AA000432B0000432B0000432B00002B2B000086
:102AB000432B0000432B0000432B0000432B00005E
:102AC000432B0000432B0000432B0000312B000060
:102AD000432B0000432B0000432B0000432B00003E
:102AE000432B0000432B0000432B0000432B00002E
:102AF000432B0000432B0000432B0000432B00001E
:102B0000432B0000432B0000432B0000372B000019
:102B10007B68402B12D014E00023FB7314E00123E8
:102B2000FB7311E00223FB730EE00323FB730BE046
:102B30000423FB7308E00523FB7305E00623FB7306
:102B400002E00448FDF726FCFB7B18461037BD4623
:102B500080BD00BF3867000080B584B000AFF8606A
:102B6000B9607A607B80FB68002B02D14148FDF799
:102B700011FCBB68002B02D13F48FDF70BFCBB6981
:102B8000002B02D13D48FDF705FC7B68002B08D0E7
:102B90007B68402B05D87B685A1E7B681340002B4E
:102BA00002D03748FDF7F6FBFB69002B08D0FB6924
:102BB000402B05D8FB695A1EFB691340002B02D03D
:102BC0003048FDF7E7FBBB6A7A6AB3FBF2F2796A39
:102BD00001FB02F29B1A002B02D02B48FDF7DAFB17
:102BE000BB687A68B3FBF2F2796801FB02F29B1AC8
:102BF000002B02D02548FDF7CDFBBB69FA69B3FB7A
:102C0000F2F2F96901FB02F29B1A002B02D0204874
:102C1000FDF7C0FB48220021F86802F028FFBA69DE
:102C2000FB685A60BA68FB681A60FB687A6A1A61C6
:102C3000BA6A7B6AB2FBF3F2FB685A617868FFF705
:102C400013FF03461A46FB681A72F869FFF70CFF78
:102C500003461A46FB685A72FB683A8C9A81FB68F5
:102C60007A885A81FB6802221A8300BF1037BD465A
:102C700080BD00BF506700007467000098670000C7
:102C8000BC6700001C68000080680000BC68000091
:102C90000469000080B58CB006AFF860B9607A6056
:102CA0003B60FB68002B02D12148FDF773FB00233A
:102CB000FB820023BB8297F82C30032B1ED801A285
:102CC00052F823F0D52C0000E92C0000DF2C000086
:102CD000F32C00003B6ABB827B68FB8211E000237F
:102CE000BB827B68FB820CE03B6ABB820023FB82D9
:102CF00007E00023BB820023FB8202E00D48FDF7C2
:102D000049FBB7F91620BB6A04937B6A0393B7F9B2
:102D1000143002933B6A01933B68009313467A6830
:102D2000B968F868FFF718FF00BF1837BD4680BDC7
:102D30004C6900007069000080B588B000AF786011
:102D400039607B68002B02D19348FDF723FB3B6879
:102D5000002B02D19148FDF71DFB7B681B69002BFE
:102D600002D18F48FDF716FB7B681B69BB617B684E
:102D70005B69002B2AD17B689B681B68002B0BDBEF
:102D8000BB69DB8A9AB2BB69DB8B9BB253409BB2B7
:102D9000C3F30E03002B02D041F2ED33F8E0002222
:102DA0003968B869FFF784FBBB699B8B9BB243F022
:102DB00008039AB2BB699A83BB699B8B9BB243F0B1
:102DC00002039AB2BB699A830023E1E002F032FB6E
:102DD00078617B689B7FFB747B68DB7FBB7497F9B2
:102DE000132097F912309A4205DB786902F033FB21
:102DF00041F2EC33CCE07B685B7F7B747B689B7F2C
:102E00005BB2DBB20133DBB25AB27B689A777B7C70
:102E10000133DBB2FB777B68DB7F5BB297F91F2066
:102E20009A4201D10023FB777B68FA7F5A77786951
:102E300002F011FB97F91130002B04D07B7C013B91
:102E4000DBB25BB206E07B68DB7F5BB2DBB2013BEF
:102E5000DBB25BB23B747B685A6997F911305B0156
:102E600013441846FFF7E8FA7B685A6997F911305E
:102E70005B011344002239681846FFF719FB7B6891
:102E80005A6997F911305B0113449B8B9AB27B68A6
:102E9000596997F911305B010B4442F0020292B27A
:102EA0009A837B685A6997F91F305B01D1187B6858
:102EB0005A6997F911305B0113440A469A6197F9F0
:102EC000112097F910309A4254D07B685A6997F9CB
:102ED00010305B0113449B8B9BB243F01003FB81CA
:102EE000FB8923F00803FB817B685A6997F910304E
:102EF0005B011344FA899A83BB699B697A685169BB
:102F000097F9112052010A4493422DD1BB699B8B42
:102F10009BB243F008039AB2BB699A83BB699B8B4F
:102F20009BB243F01003FB81BB69FA899A83BB69AA
:102F30009B8B9BB203F01003002B09D0BB699B8BCA
:102F40009BB223F008039AB2BB699A8300231FE067
:102F5000BB699B697A68516997F91F2052010A443D
:102F6000934207D1002313E0BB699B69002B01D07A
:102F700000230DE07B68D8687B6899697B685A6993
:102F800097F911305B0113441A46FFF7F1F800235B
:102F900018462037BD4680BD88690000AC69000036
:102FA000D069000080B584B000AF78607B68002BEA
:102FB00002D12148FDF7EEF97B681B69FB607B6855
:102FC0009B685B69002B08D1FB689B8B9BB243F02D
:102FD00001039AB2FB689A8329E07B685B69002B46
:102FE00008D17B689B681A687B689B6842F0010285
:102FF0001A601CE07B689B681B6803F00103002BD0
:1030000015D17B689B681B6803F08043002B06D0BA
:10301000FB689B8B9BB203F01003002B07D07B68EF
:103020009B681A687B689B6842F001021A6000BFC7
:103030001037BD4680BD00BFFC69000080B582B07E
:1030400000AF78607B68002B02D10848FDF7A2F939
:103050007B689B681B687A68926823F0804323F042
:103060000103136000BF0837BD4680BD206A000021
:1030700090B589B000AF78607B68002B02D16448BE
:10308000FDF788F97B689B681B6803F08043002B81
:1030900014BF01230023BB767B689B689B6803F009
:1030A0000103002B07D07B689B689A687B689B684C
:1030B00042F001029A607B685B69002B0DD17B684E
:1030C0001B68002B00F0A0807B681C687B68596837
:1030D000BA7E00237868A04796E07B681B699B69ED
:1030E0007B617B681B699B8B9BB203F01003002BF9
:1030F00014BF01230023FB747B685B691A467B695C
:103100009B1A7B617B695B09FB60BB7E002B02D055
:10311000FB68FB760EE0FB68002B04D0FB68DBB29B
:10312000013BDBB205E07B68DB7F5BB2DBB2013BDE
:10313000DBB2FB767B681B7F5AB297F91B309A4251
:1031400019D17B689B7FFB727B68DB7FBB7297F931
:103150000B2097F90A309A4205D0FB7C83F00103DB
:10316000DBB2002B04D07B689B7F5BB2FB611DE070
:103170000023FB611AE0FB7E7A68127F52B29B1A31
:10318000FB61FB69002B06DA7B68DB7F5BB21A46CA
:10319000FB691344FB61BB7E002B07D07B689B68F7
:1031A0001A687B689B6842F080421A6097F91B207E
:1031B0007B681A777B689B7F5BB2DAB2FB69DBB214
:1031C000D31ADBB25AB27B689A777B681B68002BF4
:1031D00007D07B681C687B685968FB69BA7E786891
:1031E000A047BB7E002B0FD07B681B699B8B9BB2DB
:1031F00003F01003002B07D07B689B681A687B687C
:103200009B6842F080421A6000BF2437BD4690BDE3
:10321000446A000080B582B000AF786039600E4A21
:103220007B6852F823301A463B681B03134403F5AE
:1032300080539B6803F00103002B09D007497B688A
:103240001A013B68134451F823301846FFF710FF6A
:1032500000BF0837BD4680BDD8720000480200207C
:1032600080B485B000AF7860064A7B6852F823309E
:10327000FB60FB68D3F8F43F18461437BD465DF891
:10328000047B70472800002080B586B000AFF8604E
:103290000B467A60FB72FB7A072B02D91D48FDF7BB
:1032A00079F81D4AFB6852F823307B61FB7A194696
:1032B000786902F019FA034683F00103DBB2002BB0
:1032C00001D0032321E07B69D3F8F83F03F0080322
:1032D000002B09D07B69D3F8F83F03F00702FB7A93
:1032E0009A4201D0012310E07B68002B08D0FB7AC2
:1032F00043F00803DBB21A467B69C3F8F82F03E0FA
:10330000FA7A7B69C3F8F82F002318461837BD46B0
:1033100080BD00BF686A00002800002080B582B030
:1033200000AF78600B46FB707B68092B02D90E4812
:10333000FDF730F80D4A7B6832F81330184602F07A
:10334000B7F90B4A7B6852F82330184600F044FF67
:10335000FB78002219467868FFF796FF0346184667
:103360000837BD4680BD00BFAC6A00002473000072
:103370003873000080B584B000AFF860B9607A603F
:10338000FB70FB68092B02D91348FDF703F8FA78A4
:10339000124913469B0013445B00FA681344002251
:1033A00041F82320FA780E4913469B0013445B0032
:1033B000FA6813447A6841F82320FA7807491346DB
:1033C0009B0013445B00FA681344BA6841F8232059
:1033D00000BF1037BD4680BDF86A0000C80200205B
:1033E0006803002080B584B000AF78607868FFF78C
:1033F00037FFF860FB6803F03003002B13D0254A39
:103400007B681E3352F82330002B0CD0214A7B6896
:103410001E3352F8233020497A681E3251F8222098
:10342000114678689847FB6803F00303002B13D01C
:10343000184A7B680A3352F82330002B0CD0154A07
:103440007B680A3352F8233013497A680A3251F8FC
:103450002220114678689847FB6803F00403002B8C
:1034600013D00C4A7B68143352F82330002B0CD055
:10347000084A7B68143352F8233007497A681432BB
:1034800051F8222011467868984700BF1037BD4692
:1034900080BD00BFC80200206803002080B584B052
:1034A00000AF78600023FB6009E00D4AFB6852F82A
:1034B00023307A689A4206D0FB680133FB60FB68D0
:1034C000092BF2D900E000BFFB68092B02D905489F
:1034D000FCF760FFFB6818461037BD4680BD00BF93
:1034E00060730000446B000080B58CB000AFF860E2
:1034F000B9607A60BB68002B02D17748FCF74AFFBD
:10350000BB681B68002B02D17448FCF743FFBB6803
:103510001B7A072B02D97248FCF73CFFBB685B7A29
:10352000072B02D96F48FCF735FF0023FB62BB680D
:103530001B68FB61002387F823300023FB840423EE
:1035400087F8223049E07A6813469B0013445B00F9
:103550001946BB681B6897F8222002FB03F3B1FBF6
:10356000F3F30533604AA2FB0323DB08BB84BB8C67
:10357000002B02D10123BB8406E0BB8CB3F5005FB6
:1035800002D341F6FF73BB8497F82230BA8C02FB5A
:1035900003F37A68B2FBF3F3BB61BB681B68BA69DB
:1035A0009A4204D9BB681B68BA69D31A03E0BB68A6
:1035B0001A68BB69D31A7B617A69FB699A4207D89A
:1035C0007B69FB6197F8223087F82330BB8CFB8442
:1035D00097F82230013387F8223097F82230202BD9
:1035E000B1D9BB681B68414AA2FB03235A091346A1
:1035F0005B001344FA699A4203D940F22153FB62FB
:103600004DE1F868FFF74AFF034601211846FFF72E
:1036100085FEF862FB6A002B01D0FB6A40E1F86886
:1036200002F0D1F8FB681B69BB6297F82330032BCB
:1036300007D997F82330072B03D8BB6A43F400332C
:10364000BB62BB6A23F0F853BB6297F82330013B9F
:103650001B0603F0F853BA6A1343BB62BB6A23F438
:10366000FF5323F01F03BB62FB8CC3F30C02BB6A46
:103670001A43FB681A61FB681B6923F00052FB6860
:103680001A61FB689B6923F4E26323F00703BB62C2
:10369000BB681B791A46BB68DB7B1B0203F4E06343
:1036A0001A43BB689B7B9B0003F004031343BA6A75
:1036B0001343BB62BB685B79012B19D1BB681B79D3
:1036C000002B04D0BB6A23F40063BB6218E0BB6A22
:1036D00043F40063BB6213E07C6B0000A06B00004E
:1036E000D06B00002C6C0000CDCCCCCC1F85EB51F6
:1036F000BB681B79002B03D0BB6A43F01003BB628D
:10370000FB68BA6A9A61FB681B6923F40053BB62C9
:10371000BB68DB795B0303F40052BB6A1A43FB68A6
:103720001A61BB685B7A1B04BA68127A1A43FB6899
:10373000DA62FB689B6A43F08802FB689A62FB6866
:103740009B6A43F44042FB689A62574BBB62BB6A78
:1037500043F00043BB62BB6A43F44043BB62FB6877
:103760005A6ABB685B7B1B0103F01001BB681B7BC3
:103770005B0103F020030B431A43FB685A62BB68EA
:103780009B7A002B05D0FB685B6A43F00802FB685C
:103790005A62BB68DB7A002B05D0FB685B6A43F09A
:1037A0000102FB685A62BB689B79002B04D0BB6A9C
:1037B00043F00053BB6203E0BB6A23F00053BB62DB
:1037C000FB685A69BB6A1A43FB685A61FB689B69CC
:1037D000BB62BB6893F82630002B03D0BB6A43F46E
:1037E0000023BB62BB6893F82730002B03D0BB6A71
:1037F00043F48023BB62FB68BA6A9A61BB681B8A88
:103800001A46FB689A64BB685B8A1A46FB68DA64EE
:10381000FB689A6DBB681B7D1946BB681B7E5B000D
:103820001943BB681B7F9B001943BB6893F820308A
:10383000DB000B431A43FB689A65BB685B7D9B0703
:10384000BA68D28A1A43FB681A66BB685B7E9B071C
:10385000BA68528B1A43FB685A66BB685B7F9B074A
:10386000BA68D28B1A43FB689A66BB6893F821301A
:103870009B07BA68528C1A43FB68DA66BB6893F8F8
:1038800025301A02FB681A65BB6893F82430002BB8
:1038900005D0FB681B6D43F00F02FB681A65FB6ADD
:1038A00018463037BD4680BD00001F4080B582B04D
:1038B00000AF78607B68002B02D11E48FCF76AFDE0
:1038C00028220021786802F0D2F87B684FF4E132B8
:1038D0001A607B6800221A717B6800225A717B682B
:1038E00000229A717B680022DA717B6800221A72CA
:1038F0007B6800225A727B6800229A727B680022E1
:10390000DA727B6800225A737B6800221A737B6824
:1039100000229A737B680022DA737B68002283F8A6
:1039200026207B68002283F8272000BF0837BD4689
:1039300080BD00BF886C000080B485B000AF7860A7
:1039400039603A68244B13403B607B681A6C3B68D3
:1039500003F00F031A437B681A647B68DA6D3B68D7
:103960009B0803F470631A437B68DA657B681B6904
:10397000FB603B681B0203F40043FA681343FB60DF
:103980003B6823F080033B603B681B0203F48043E9
:10399000FA681343FB603B6823F040033B607B689D
:1039A000FA681A617B689B6A23F440323B6803F42F
:1039B00040731A437B689A623B6823F440733B6010
:1039C0007B689A693B681A437B689A6100BF143729
:1039D000BD465DF8047B7047CFC3F00F80B485B05F
:1039E00000AF786039603A68274B13403B607B68D2
:1039F0001A6C3B6803F00F03DB431A407B681A64C0
:103A00007B68DA6D3B689B0803F47063DB431A4004
:103A10007B68DA657B681B69FB603B681B0203F40B
:103A20000043DB43FA681340FB603B6823F08003EC
:103A30003B603B681B0203F48043DB43FA6813409E
:103A4000FB603B6823F040033B607B68FA681A61C7
:103A50007B689A6A3B6803F44073DB43134023F4AA
:103A600040327B689A623B6823F440733B607B681A
:103A70009A693B68DB431A407B689A6100BF143740
:103A8000BD465DF8047B7047CFC3F00F80B485B0AE
:103A900000AF78607B685A69134B1340FB607B680A
:103AA0005B6C9B0003F03C03FA681343FB607B688C
:103AB000DB6D9B0003F47053FA681343FB607B6873
:103AC0009B6A1B0C03F0C303FA681343FB60FB689B
:103AD00023F0785323F47C53FB60FB6818461437BB
:103AE000BD465DF8047B704700C0FFC180B584B05F
:103AF00000AF786039603A68204B13403B603B6808
:103B00009B0803F00F027B685A643B689B0803F430
:103B100070627B68DA653B6803F00303002B10D00A
:103B20007B689B6ABB60BB6823F47033BB603B68F7
:103B30001B0403F44033BA681343BB607B68BA6864
:103B40009A627B685B6903F078533A681343BB6001
:103B50007B68BA685A617868FFF798FF02463B684D
:103B60001340002B03D040F21A53FB6001E0002306
:103B7000FB60FB6818461037BD4680BD3FC01FC0C4
:103B800080B586B000AFF860B9607A60BB68002B82
:103B900002D11448FCF7FEFBBB687B617B683B618C
:103BA00011E000BFFB685B6903F40003002BF9D050
:103BB0007B691B781A46FB68DA617B6901337B619C
:103BC0003B69013B3B613B69002BEAD100BFFB68CD
:103BD0005B6903F48003002BF9D0002318461837E3
:103BE000BD4680BDAC6C000080B58AB000AFF86007
:103BF000B9607A60BB68002B02D15248FCF7CAFB5F
:103C000000237B62BB683B62FB689B69FB61FB69CD
:103C100003F40063002B09D1FB6903F01003002BB0
:103C200006D1FB6903F00203002B01D0012300E061
:103C30000023FB76FB7E03F00103FB7676E0F86859
:103C4000FFF724FF78617B6903F40023002B0ED07B
:103C50004FF40021F868FFF749FF0346002B02D11B
:103C600040F21D5301E040F21A537B6244E07B694D
:103C700003F48033002B0DD04FF48031F868FFF748
:103C800035FF0346002B02D14FF4A46301E040F25C
:103C90001A537B627B6903F40033002B0DD04FF481
:103CA0000031F868FFF722FF0346002B02D140F2F3
:103CB0001F5301E040F21A537B627B6903F48023B7
:103CC000002B0DD04FF48021F868FFF70FFF03465B
:103CD000002B02D140F21E5301E040F21A537B62E6
:103CE0007B6A002B07D1FB68DB6A1B0E03F00F0316
:103CF000002BA4D000E000BF7B6A002B1CD1FB7E10
:103D0000002B0BD0FB68DB69DBB203F07F03DAB278
:103D10003B6A1A703B6A01333B6207E0FB68DB6970
:103D2000DAB23B6A1A703B6A01333B627B685A1E07
:103D30007A60002BD7D100E000BF7B6A1846283795
:103D4000BD4680BDCC6C000080B483B000AF03469C
:103D5000FB80B7F90630002B0BDBFB8803F01F025A
:103D60000749B7F906305B09012000FA02F241F871
:103D7000232000BF0C37BD465DF8047B704700BFB1
:103D800000E100E080B586B000AFF860B9603B604C
:103D90001346FB71BB68002B02D10E48FCF7FAFA00
:103DA000BB687B61FB79002B0FD07B691B6800210E
:103DB000184601F043FDF86801F05DFB7B691B6864
:103DC0004FF480011846FFF7B7FD00BF1837BD4616
:103DD00080BD00BFF06C000090B587B000AFF86008
:103DE000B9603B601346FB71BB68002B02D11348DE
:103DF000FCF7D0FABB687B61FB79002B19D07B699B
:103E00001A687B695B681946104600F00DF97B69FA
:103E10005B681B68002B0CD07B695B681C687B6946
:103E200018687B6959687B695B685B6840F2175268
:103E3000A04700BF1C37BD4690BD00BF186D0000F5
:103E400080B586B000AFF860B9607A603B60BB684F
:103E5000002B02D13148FCF79DFAF868FFF71EFBF2
:103E600078612F497B69FA6841F833202C4A7B69D5
:103E7000DB001344BA685A601C220021B86801F0C4
:103E8000F6FDBB6802229A76BB6800225A76BB68B0
:103E90007A6A5A61BB683A6A1A61BB687A681A60C2
:103EA000BB683A685A607B6A002B05D0FB68DB6A06
:103EB00023F4E022FB68DA621A4B3B613969012383
:103EC000BA687869FFF756FA1749F868FFF786FD70
:103ED000164A7B6932F91330184601F08AFC3B6AB6
:103EE000002B09D0BB6818697B69DB000C4A1344BE
:103EF0001A460F49FEF7A0FD7B6A002B09D0BB686C
:103F000058697B69DB00064A13441A460949FEF7E3
:103F100093FD00BF1837BD4680BD00BF406D000057
:103F200008040020F5400000CFC3F00F88730000A4
:103F3000853D0000D93D000090B59DB004AFF8600C
:103F4000B9607A60BB68002B02D13248FCF722FAD4
:103F5000BB685B69002B02D12F48FCF71BFA7B681A
:103F6000002B02D12D48FCF715FA7B681B68002B4B
:103F700002D12B48FCF70EFA7B685B68002B02D15C
:103F80002848FCF707FABB689B7EDBB2032B03D102
:103F900040F21553FB6538E0BB6803229A767B68D4
:103FA0005A68BB689A60F86801F03CFC03461C46FE
:103FB0007B681A687B685B6807F114000121039134
:103FC000029301230193012300931346012221460A
:103FD000FEF760FEBB6801221A76BB685B6907F1D9
:103FE000140211461846FEF7A7FE0346002B01D027
:103FF00001230BE0BB685B691846FEF7D3FF012184
:10400000F86801F037FC0023FB65FB6D1846643748
:10401000BD4690BD686D0000906D0000C86D000049
:10402000F06D00001C6E000080B582B000AF7860BB
:1040300039603B68002B02D10C48FCF7ABF93B68B8
:104040005B69002B02D10A48FCF7A4F900217868CB
:1040500001F010FC3B685B69184601F00CFA3B6804
:1040600002229A7600BF0837BD4680BD4C6E000024
:10407000746E0000B0B584B000AFF860B9607A60CB
:10408000BB68002B02D11848FCF784F9BB685B6958
:10409000002B02D11548FCF77DF97B68002B02D17B
:1040A0001348FCF777F9BB689B7EDBB2022B01D18A
:1040B000062315E0BB689C68BB681B7E1D46BB6879
:1040C0005B69DA68BB685B699B6919461046FEF755
:1040D000F9FB034605FB03F3E21A7B681A60002331
:1040E00018461037BD46B0BDAC6E0000D46E00005F
:1040F0000C6F000090B585B000AF786039603B6808
:10410000002B02D11848FCF745F97B68092B02D92E
:104110001648FCF73FF9164A7B6852F82330FB60DB
:10412000F868FFF7B3FC034603F48003002B16D0B6
:104130003B68BB604FF48001F868FFF74FFCBB6839
:1041400000225A76BB681B68002B08D0BB681C682D
:10415000BB685B6840F21652B968F868A04700BFB8
:104160001437BD4690BD00BF346F0000686F00007B
:104170009C73000080B586B000AF78607B681B0C34
:104180007B617B689BB23B6101223B6902FA03F3CE
:10419000FB603B691F2B02D90D48FCF7FBF84FF081
:1041A00080417B694833FA6841F82320094BBB60A2
:1041B00000BF7B699B00BA6813441A68FB68134010
:1041C000002BF6D000BF00BF1837BD4680BD00BF32
:1041D000A86F00000001004080B586B000AF786095
:1041E0007B681B0C7B617B689BB23B6101223B6956
:1041F00002FA03F3FB603B691F2B02D90D48FCF761
:10420000C9F84FF080417B695033FA6841F82320A8
:10421000094BBB6000BF7B699B00BA6813441A68F6
:10422000FB681340FA689A42F5D000BF00BF183708
:10423000BD4680BDC86F00000001004080B584B05D
:1042400000AF786039603B68002B02D11348FCF75F
:10425000A1F80023FB603B681B7803F00303FA68B6
:104260001343FB607B68FA681A643B685B78002B39
:1042700010D07B681B6C43F080427B681A6400BFDF
:104280007B681B6C002BFBDA7B681B6C23F0804285
:104290007B681A6400BF1037BD4680BDE86F000020
:1042A00080B584B000AF786039603B68002B02D1E4
:1042B0001448FCF76FF80023FB607B681B6903F070
:1042C0000103002B02D042F6A00317E03B685B78A5
:1042D0001946786801F033FBF860FB68002B05D1C4
:1042E0003B681B781946786801F010FB00BF7B68BB
:1042F0001B6903F00103002BF9D1FB681846103746
:10430000BD4680BD0870000080B500AF174BD3F8E4
:104310008830164A43F47003C2F88830134BD3F840
:104320008830124A43F00F03C2F888300F4BD3F89D
:104330008C300E4A43F4406343F00303C2F88C30E0
:104340004FF080430022C3F8442E4FF08043D3F84F
:1043500000344FF0804223F40033C2F80034034BA2
:10436000034A9A6001F01BFB00BF80BD00ED00E036
:104370000000000080B58EB000AF78603960002387
:10438000FB8607F108031846FFF790FA3B685B6865
:10439000BB603B681B7A3B733B685B7AFB733B6893
:1043A0009B7A002B14BF01230023DBB287F82F3048
:1043B0003B68DB7A002B14BF01230023DBB287F8B4
:1043C0002E303B68DB7B002B08D03B68DB7B082B67
:1043D00028BF0823DBB2013BDBB23B743B681B7C8C
:1043E000002B08D03B681B7C082B28BF0823DBB2BE
:1043F000013BDBB27B743B681B7B002B14BF0123AA
:104400000023DBB2BB743B685B7B002B14BF012332
:104410000023DBB2FB740123BB750123FB753B68F2
:104420009B7B1A460B4B53F822003B681A6807F136
:1044300008031946FFF758F838633B6B002B04D08C
:10444000386B01F0B3FA0346FB86FB8E184638370B
:10445000BD4680BDC473000080B584B000AF7860F5
:1044600039607B68002B02D11748FBF793FF3B684C
:10447000002B02D11548FBF78DFF3B689B7B092B76
:1044800002D91348FBF786FF3B689B7B1A46114B0A
:1044900053F82230002B02D10F48FBF77BFF39681D
:1044A0007868FFF767FF0346FB81FB89002B05D186
:1044B0007B68BB603B689A7BBB681A70FB891846B7
:1044C0001037BD4680BD00BF28700000547000004A
:1044D00080700000C4730000E470000080B586B0F6
:1044E00000AFF860B9607A60FB68002B02D1124817
:1044F000FBF750FFBB68002B02D11048FBF74AFFC7
:104500007B68002B02D10E48FBF744FFFB687B6100
:104510007B691B781A460B4B53F822307A68B968CE
:104520001846FFF761FB3861386901F03FFA03462E
:1045300018461837BD4680BD307100005C71000020
:1045400084710000C473000080B586B000AFF860CD
:10455000B9607A60FB68002B02D11048FBF71AFFA4
:10456000BB68002B02D10E48FBF714FF7B68002BC1
:1045700002D10C48FBF70EFFFB687B617B691B785F
:104580001A46094B53F822307A68B9681846FFF783
:10459000F7FA002318461837BD4680BDAC710000FD
:1045A000D871000000720000C473000080B582B0B2
:1045B00000AF43F21800FCF701FE0748FFF70CFEBE
:1045C000064B7B607B68012205490420FBF7EEFE69
:1045D00000BF0837BD4680BD0F000100001BB700BB
:1045E000A086010080B582B000AF0A4B1B88BB805B
:1045F0003B1D19460848FFF753FE084B1B883B80BC
:104600003B4619460448FFF719FE00BF0837BD4670
:1046100080BD00BFEC73000000500440F073000048
:1046200080B588B000AF40F21A2001F0D3F943F210
:10463000FE30FCF7C3FD02211748FCF749FD17487F
:10464000FCF7DCFC3B1D00221A605A609A60DA60BD
:104650001A615A619A61124B7B600823BB60012387
:10466000FB6032233B610C4BFB613B1D1846FCF7A2
:104670007DFF0020FCF710FD46F2FE30FCF79EFDAA
:1046800001212020FCF7F2FD064B034A1A6000BF0F
:104690002037BD4680BD00BF80D1F008006CDC0231
:1046A000B03500025000002080B586B000AFF86041
:1046B000B9607A607B68002B02D10848FBF76AFE7C
:1046C000BB6820339B00FA6813447B617B697A687E
:1046D00012881A8000BF1837BD4680BD28720000BE
:1046E00080B586B000AF0D2001F096F90E2001F0E4
:1046F00093F9102001F090F90023BB827B7D042206
:1047000062F303037B757B7D43F010037B7507F138
:1047100014031A460A212F48FFF7C6FF00233B82E5
:104720007B7C042262F303037B747B7C43F01003E5
:104730007B7407F110031A460B212648FFF7B4FFDC
:104740000023BB817B7B042262F303037B737B7BAF
:1047500043F010037B7307F10C031A460C211D482C
:10476000FFF7A2FF00233B817B7A042262F303035D
:104770007B727B7A43F010037B7207F108031A46C1
:104780000A211548FFF790FF0023BB807B790222A6
:1047900062F303037B717B7943F010037B713B1D54
:1047A0001A4608210C48FFF77FFF00233B807B78E7
:1047B000022262F303037B707B7843F010037B706B
:1047C0003B461A4609210448FFF76EFF00BF183721
:1047D000BD4680BD006011400070114010B5174A01
:1047E0001749002001F0C3F94FF480734FF4806241
:1047F0000021124801F055F9124A1349012001F035
:10480000B6F94FF480734FF4806200210D4801F037
:1048100048F90E4B1B68022B0EDD0D4A0A49022097
:1048200001F0A5F9BDE810404FF480734FF48062A9
:104830000021074801F035B910BD00BF5C0400201D
:10484000F873000098040020FA730000F47300006D
:10485000D40400202DE9F041D5688046EB020E46D5
:104860001446576912D5384601F089FA45F010050B
:10487000A0613846A16901F08BFA002819DAE368D3
:104880004FF0FF3043F08003E36010E00C4B2B400F
:10489000002BEED132464146384601F07FFA20F037
:1048A0000043F61AA3693344A3610028E7D1BDE8A9
:1048B000F08125F4003525F01005E560EAE700BF3A
:1048C00010000200F8B5044638B905460A4B0B4EF5
:1048D0001F68A74205DC2846F8BDBDE8F84001F096
:1048E000D9B9304601F0D6F9002818BF4FF0FF358E
:1048F00001343C36EDE700BFF47300005C04002097
:104900002DE9F843C6683B4B044633400D469046BC
:104910007BB1D0F81490484601F034FA074640B90C
:10492000B8F1010F09D0B8F1020F31D0B8F1000F82
:1049300007D002273846BDE8F883204600F05CF82F
:104940000544002DF5DBB30404D52368E26A9A42DE
:1049500038BFE362A069A8420EDC2368E26A934292
:1049600038BF134622691918891AA94204DB216B42
:1049700000EB010CAC452CDC0023C4E9013346F00C
:104980002006A56226F4032626F04006E660D1E75D
:10499000484601F0F4F9B0F1000CE26804DA42F0A4
:1049A00080020127E260C5E72168A369E06A8142CD
:1049B0002CBF5B181B1821699206A3EB010303D5DA
:1049C000A26A9342B8BF13466345ACBFED18654475
:1049D000B7E72D1AB00744BF691AA160F10744BFB9
:1049E0009B1AEB1A2A4448BF6360226026F0200617
:1049F000C8E700BF03001000C3689A0705D1212251
:104A00000D4B4FF0FF301A60704703F020021B037C
:104A100009D512B1806A013870470368826900695C
:104A20001344181AF7E70AB1806A7047036882696D
:104A300000691344181A7047580400200FB480B559
:104A400082B000AF00237B6007F114033B6039683C
:104A50003869FBF7EFFC78607B6818460837BD467D
:104A6000BDE8804004B0704780B586B000AFB96043
:104A70007A603B600346FB73BB687B610BE0FA7BAB
:104A80003B6A104698473B681B685A1C3B681A6093
:104A90007B6901337B617A697B689A42EFDB00BFF7
:104AA00000BF1837BD4680BD80B48FB000AFF8603E
:104AB000B9607A603B600023FB62FB68BB62BB6A43
:104AC0005A1CBA6200221A7000237B6000237B62AA
:104AD00000233B620023FB6100237B630023BB6157
:104AE00000233B6300237B61BB681B687B637B6B9C
:104AF000002B30D1BB6A30221A70FB6A0133FB6293
:104B0000FB6A2CE03B687A6BB2FBF3F3BB613B685A
:104B1000BA6902FB03F37A6BD31A3B633B6B092B35
:104B200003D83B6B30333B630AE097F84030002BEF
:104B300001D0412200E061223B6B13440A3B3B63FE
:104B4000BB697B63BB6A5A1CBA623A6BD2B21A70F9
:104B5000FB6A0133FB627B6B002BD3D1FB6A1846E7
:104B60003C37BD465DF8047B704708B5FBF710FC89
:104B700008BD08B500F09CFC08BD08B500F0A0FC1D
:104B800008BD08B500F0A4FC08BD08B500F0A8FCFD
:104B900008BD08B500F0ACFC08BD08B500F0B0FCDD
:104BA00008BD08B500F0B4FC08BD08B500F0B8FCBD
:104BB00008BD08B500F0BCFC08BD08B500F0C0FC9D
:104BC00008BD08B500F0C4FC08BD08B500F0C8FC7D
:104BD00008BD08B500F0CCFC08BD08B500F0D0FC5D
:104BE00008BD08B500F0D4FC08BD08B500F0D8FC3D
:104BF00008BD08B5FBF7CCFB08BD08B5FBF7C8FB43
:104C000008BD08B5FBF7C4FB08BD08B5FBF7C0FB42
:104C100008BD08B5FBF7BCFB08BD08B5FBF7B8FB42
:104C200008BD08B5FBF7B4FB08BD08B5FBF7B0FB42
:104C300008BD08B5FBF7ACFB08BD08B5FBF7A8FB42
:104C400008BD08B5FBF7A4FB08BD08B5FBF7A0FB42
:104C500008BD08B5FBF79CFB08BD08B5FBF798FB42
:104C600008BD08B500F08EFB08BD08B500F091FB4B
:104C700008BD08B5FBF78CFB08BD08B500F090FB3C
:104C800008BD08B500F059FD08BD08B500F05CFD91
:104C900008BD08B500F05FFD08BD08B500F062FD75
:104CA00008BD08B500F065FD08BD08B500F068FD59
:104CB00008BD08B500F06BFD08BD08B500F06EFD3D
:104CC00008BD08B500F071FD08BD08B500F074FD21
:104CD00008BD08B5FBF75CFB08BD08B5FBF758FB42
:104CE00008BD08B5FBF754FB08BD08B5FBF750FB42
:104CF00008BD08B5FBF74CFB08BD08B5FBF748FB42
:104D000008BD08B5FBF744FB08BD08B5FBF740FB41
:104D100008BD08B5FBF73CFB08BD08B5FBF738FB41
:104D200008BD08B500F043FB08BD08B500F046FB20
:104D300008BD08B5FBF72CFB08BD08B5FBF728FB41
:104D400008BD08B5FBF724FB08BD08B5FBF720FB41
:104D500008BD08B5FBF71CFB08BD08B5FBF718FB41
:104D600008BD08B5FBF714FB08BD08B5FBF710FB41
:104D700008BD08B5FBF70CFB08BD08B5FBF708FB41
:104D800008BD08B5FBF704FB08BD08B5FBF700FB41
:104D900008BD08B5FBF7FCFA08BD08B5FBF7F8FA43
:104DA00008BD08B5FBF7F4FA08BD08B5FBF7F0FA43
:104DB00008BD08B5FBF7ECFA08BD08B5FBF7E8FA43
:104DC00008BD08B5FBF7E4FA08BD08B5FBF7E0FA43
:104DD00008BD08B500F0ECFB08BD08B500F0F0FB1D
:104DE00008BD08B500F0F4FB08BD08B500F0F8FBFD
:104DF00008BD08B500F0FCFB08BD08B500F000FCDC
:104E000008BD08B500F004FC08BD08B500F008FCBA
:104E100008BD08B500F00CFC08BD08B500F010FC9A
:104E200008BD08B500F014FC08BD08B500F018FC7A
:104E300008BD08B500F01CFC08BD08B500F020FC5A
:104E400008BD08B500F024FC08BD08B500F028FC3A
:104E500008BD08B5FBF79CFA08BD08B5FBF798FA42
:104E600008BD08B5FBF794FA08BD08B5FBF790FA42
:104E700008BD08B5FBF78CFA08BD08B5FBF788FA42
:104E800008BD08B5FBF784FA08BD08B5FBF780FA42
:104E900008BD08B5FBF77CFA08BD08B5FBF778FA42
:104EA00008BD08B5FBF774FA08BD08B5FBF770FA42
:104EB00008BD08B5FBF76CFA08BD08B5FBF768FA42
:104EC00008BD08B5FBF764FA08BD08B5FBF760FA42
:104ED00008BD08B5FBF75CFA08BD08B5FBF758FA42
:104EE00008BD08B5FBF754FA08BD08B5FBF750FA42
:104EF00008BD08B5FBF74CFA08BD08B5FBF748FA42
:104F000008BD08B5FBF744FA08BD08B5FBF740FA41
:104F100008BD08B5FBF73CFA08BD08B5FBF738FA41
:104F200008BD08B5FBF734FA08BD08B5FBF730FA41
:104F300008BD08B5FBF72CFA08BD08B5FBF728FA41
:104F400008BD08B5FBF724FA08BD08B5FBF720FA41
:104F500008BD08B5FBF71CFA08BD08B5FBF718FA41
:104F600008BD08B5FBF714FA08BD08B5FBF710FA41
:104F700008BD08B5FBF70CFA08BD08B5FBF708FA41
:104F800008BD08B5FBF704FA08BD08B5FBF700FA41
:104F900008BD08B5FBF7FCF908BD08B5FBF7F8F943
:104FA00008BD08B5FBF7F4F908BD08B5FBF7F0F943
:104FB00008BD08B5FBF7ECF908BD08B5FBF7E8F943
:104FC00008BD08B5FBF7E4F908BD08B5FBF7E0F943
:104FD00008BD08B5FBF7DCF908BD08B5FBF7D8F943
:104FE00008BD08B5FBF7D4F908BD08B5FBF7D0F943
:104FF00008BD08B5FBF7CCF908BD08B5FBF7C8F943
:1050000008BD08B5FBF7C4F908BD08B5FBF7C0F942
:1050100008BD08B5FBF7BCF908BD08B5FBF7B8F942
:1050200008BD08B5FBF7B4F908BD08B5FBF7B0F942
:1050300008BD08B5FBF7ACF908BD08B5FBF7A8F942
:1050400008BD08B5FBF7A4F908BD80B485B000AF72
:105050000346FB80FB88002B0DD0FB881B0AFB60FE
:10506000FB88DBB24FF0804101229A40FB68883315
:1050700041F8232000E000BF1437BD465DF8047BF3
:10508000704780B485B000AFF860B9601346FB711B
:10509000FB79002B05D10122BB689A40FB689A641A
:1050A00004E00122BB689A40FB685A6400BF1437D1
:1050B000BD465DF8047B704780B483B000AF786074
:1050C00039607B683A685A6400BF0C37BD465DF8AA
:1050D000047B704780B483B000AF786039607B6830
:1050E0003A689A6400BF0C37BD465DF8047B704790
:1050F00080B483B000AF78607B685B6843F00102E6
:105100007B685A6000BF0C37BD465DF8047B704772
:1051100080B483B000AF78607B685B6823F00102E5
:105120007B685A6000BF0C37BD465DF8047B704752
:1051300004207146084202D0EFF3098001E0EFF34A
:10514000088081690A884BF6AB639A4200D0FEE77B
:10515000023181610168012901D0002100E0202194
:105160000160704700BF80B52DED028B84B000AFA9
:105170000023BB604FF00003FB60FCF79FF9B860B1
:10518000FBF714FF0346002B22D0FCF753FB78609B
:10519000FCF790FB3860BA687B68B2FBF3F3BB6046
:1051A000BB6807EE903AB8EE678AFCF7E3FBF0EED7
:1051B000407A68EE277AC7ED037A3B6807EE903AAB
:1051C000B8EE677AD7ED036AC6EE877AC7ED037A41
:1051D000D7ED037AFCEEE77A17EE903A18461037CF
:1051E000BD46BDEC028B80BD80B52DED028B84B039
:1051F00000AF0023BB604FF00003FB60FCF78AF9AF
:10520000B860FBF7E7FE0346002B22D0FCF732FB29
:105210007860FCF77FFB3860BA687B68B2FBF3F319
:10522000BB60BB6807EE903AB8EE678AFCF7F8FB04
:10523000F0EE407A68EE277AC7ED037A3B6807EE16
:10524000903AB8EE677AD7ED036AC6EE877AC7ED73
:10525000037AD7ED037AFCEEE77A17EE903A184618
:105260001037BD46BDEC028B80BD80B582B000AF6B
:1052700000237B604FF08043D3F82C35002B02D005
:10528000012B04D010E0FFF76EFF78600FE0FFF70E
:10529000ABFF02464FF08043D3F8E433DBB2013377
:1052A000B2FBF3F37B6002E000237B6000BF4FF0B2
:1052B0008043D3F8C433DBB201337A68B2FBF3F333
:1052C00018460837BD4680BD80B485B000AF0346A0
:1052D000FB80FB88002B0DD0FB881B0AFB60FB8842
:1052E000DBB24FF0804101229A40FB68883341F8DD
:1052F000232000E000BF1437BD465DF8047B7047F3
:1053000080B584B000AF0346FB800023FB60B7F993
:10531000063013F1800F02D10123FB6004E0B7F9DE
:1053200006301846FCF7D2FBFB6818461037BD461E
:1053300080BD80B483B000AF78607B681B6818467E
:105340000C37BD465DF8047B704780B483B000AF76
:10535000786039607B683A681A6000BF0C37BD46D8
:105360005DF8047B704780B483B000AF786039602B
:105370007B68DA6B3B68134018460C37BD465DF816
:10538000047B704780B500AF0020FCF78DFD00BFA7
:1053900080BD80B500AF0120FCF786FD00BF80BD59
:1053A00080B500AF0220FCF77FFD00BF80BD80B557
:1053B00000AF0320FCF778FD00BF80BD80B500AFD3
:1053C0000420FCF771FD00BF80BD80B485B000AF44
:1053D0000346FB80FB88002B0DD0FB881B0AFB607B
:1053E000FB88DBB24FF0804101229A40FB68883392
:1053F00041F8232000E000BF1437BD465DF8047B70
:10540000704780B584B000AF0346FB800023FB608B
:10541000B7F9063013F1800F02D10123FB6004E0DD
:10542000B7F906301846FCF799FDFB6818461037A7
:10543000BD4680BD80B483B000AFEFF310833B6006
:105440003B687B6072B600BF7B6818460C37BD4670
:105450005DF8047B704780B485B000AF78607B68EE
:10546000FB60FB6883F3108800BF00BF1437BD46A4
:105470005DF8047B704780B582B000AF78607868D3
:10548000FDF7DCFD7B681B691846FCF7D5FF7B68E0
:105490005B69002B08D07B6801221A777B680022A9
:1054A0005A777B6800229A7700BF0837BD4680BDD7
:1054B00080B500AF00210020FDF7ACFE00BF80BD2D
:1054C00080B500AF01210020FDF7A4FE00BF80BD24
:1054D00080B500AF02210020FDF79CFE00BF80BD1B
:1054E00080B500AF03210020FDF794FE00BF80BD12
:1054F00080B500AF04210020FDF78CFE00BF80BD09
:1055000080B500AF05210020FDF784FE00BF80BDFF
:1055100080B500AF06210020FDF77CFE00BF80BDF6
:1055200080B500AF07210020FDF774FE00BF80BDED
:1055300080B500AF08210020FDF76CFE00BF80BDE4
:1055400080B500AF09210020FDF764FE00BF80BDDB
:1055500080B500AF0A210020FDF75CFE00BF80BDD2
:1055600080B500AF0B210020FDF754FE00BF80BDC9
:1055700080B500AF0C210020FDF74CFE00BF80BDC0
:1055800080B500AF0D210020FDF744FE00BF80BDB7
:1055900080B500AF0E210020FDF73CFE00BF80BDAE
:1055A00080B500AF0F210020FDF734FE00BF80BDA5
:1055B00080B500AF00210120FDF72CFE00BF80BDAB
:1055C00080B500AF01210120FDF724FE00BF80BDA2
:1055D00080B500AF02210120FDF71CFE00BF80BD99
:1055E00080B500AF03210120FDF714FE00BF80BD90
:1055F00080B500AF04210120FDF70CFE00BF80BD87
:1056000080B500AF05210120FDF704FE00BF80BD7D
:1056100080B500AF06210120FDF7FCFD00BF80BD75
:1056200080B500AF07210120FDF7F4FD00BF80BD6C
:1056300080B500AF08210120FDF7ECFD00BF80BD63
:1056400080B500AF09210120FDF7E4FD00BF80BD5A
:1056500080B500AF0A210120FDF7DCFD00BF80BD51
:1056600080B500AF0B210120FDF7D4FD00BF80BD48
:1056700080B500AF0C210120FDF7CCFD00BF80BD3F
:1056800080B500AF0D210120FDF7C4FD00BF80BD36
:1056900080B500AF0E210120FDF7BCFD00BF80BD2D
:1056A00080B500AF0F210120FDF7B4FD00BF80BD24
:1056B00080B485B000AF0346FB80FB88002B0DD083
:1056C000FB881B0AFB60FB88DBB24FF080410122A4
:1056D0009A40FB68883341F8232000E000BF14376C
:1056E000BD465DF8047B704780B483B000AF78603E
:1056F0000B46FB70FB78002B01D1012317E0FB78F0
:10570000032B0ED87B68D3F8F82FFB78033322FAEB
:1057100003F303F00103002B14BF01230023DBB2CA
:1057200005E0FB78072B01D1012300E00023184698
:105730000C37BD465DF8047B704780B500AF002094
:10574000FDF750FE00BF80BD80B500AF0120FDF722
:1057500049FE00BF80BD80B500AF0220FDF742FECC
:1057600000BF80BD80B500AF0320FDF73BFE00BF4A
:1057700080BD80B500AF0420FDF734FE00BF80BDC2
:1057800080B500AF0520FDF72DFE00BF80BD80B5C0
:1057900000AF0620FDF726FE00BF80BD80B500AF3C
:1057A0000720FDF71FFE00BF80BD80B500AF0820B9
:1057B000FDF718FE00BF80BD80B500AF0920FDF7E2
:1057C00011FE00BF80BD80B483B000AF78607B68FD
:1057D0009B6843F002027B689A607B689B6823F0B9
:1057E00002027B689A6000BF0C37BD465DF8047BFF
:1057F000704780B584B000AF0346FB800023FB6098
:10580000B7F9063013F1800F02D10123FB6004E0E9
:10581000B7F906301846FEF797FAFB6818461037B6
:10582000BD4680BD80B483B000AF78607B681C3318
:1058300018460C37BD465DF8047B704780B483B0D2
:1058400000AF78600B46FB70FB78002B06D07B68BE
:105850001B6943F400027B681A6105E07B681B69E1
:1058600023F400027B681A6100BF0C37BD465DF867
:10587000047B704780B483B000AF78600B46FB7048
:10588000FB78002B06D07B681B6943F400127B6811
:105890001A6105E07B681B6923F400127B681A61BA
:1058A00000BF0C37BD465DF8047B704780B582B001
:1058B00000AF78607868FEF75DFC7868FEF78CFCD6
:1058C00000BF0837BD4680BD80B483B000AF7860AC
:1058D0007B68D3F800311B0D03F00303DBB21846DD
:1058E0000C37BD465DF8047B704780B485B000AFCF
:1058F00078607B68D3F8003103F07C53FB60FB6871
:1059000018461437BD465DF8047B704780B483B0F9
:1059100000AF78600B46FB707B68D3F8003123F44E
:105920004062FB789B0203F440631A437B68C3F830
:10593000002100BF0C37BD465DF8047B704780B581
:1059400082B000AF78600B46FB70FB78012B08D16A
:105950007868FFF7CAFF0346002B02D042F6A10386
:1059600019E0FB78022B08D17868FFF7ADFF0346FA
:10597000002B02D142F6A6030DE07B68D3F800317C
:1059800023F44072FB781B0203F440731A437B68D4
:10599000C3F80021002318460837BD4680BD80B4F7
:1059A00000AF00BFBD465DF8047B704780B485B092
:1059B00000AF78607B68002B02D10023FB8102E0FE
:1059C00042F6AF73FB81FB8918461437BD465DF87C
:1059D000047B704780B485B000AF0346FB80FB8832
:1059E000002B0DD0FB881B0AFB60FB88DBB24FF05D
:1059F000804101229A40FB68883341F8232000E06F
:105A000000BF1437BD465DF8047B704780B500AF1A
:105A1000FEF706FE00BF80BD80B485B000AF034630
:105A2000FB80FB88002B0DD0FB881B0AFB60FB88EA
:105A3000DBB24FF0804101229A40FB68883341F885
:105A4000232000E000BF1437BD465DF8047B70479B
:105A500080B500AFFEF744FE00BF80BD08B5FEF77D
:105A6000BDFEBDE80840FBF7B3B900F052B900F045
:105A70006AB9A8B14FF0805340F80C3C50F8042CA0
:105A800072B11368B3F1805F0AD150F8083C5168D5
:105A900003330B4440F8083C936840F8043CEDE7BE
:105AA000704770B5C468A50708D0B2F5007F11D063
:105AB000B2F5806F04D0B2F5807F0BD0012008E0F2
:105AC000012300F12401144301610160C361C4603A
:105AD000002070BD6FF07F455E1EAE42F3D3EDE750
